{
  "contractName": "Election",
  "abi": [
    {
      "constant": true,
      "inputs": [
        {
          "name": "",
          "type": "uint256"
        }
      ],
      "name": "candidates",
      "outputs": [
        {
          "name": "id",
          "type": "uint256"
        },
        {
          "name": "num_votes",
          "type": "uint256"
        },
        {
          "name": "name",
          "type": "string"
        }
      ],
      "payable": false,
      "stateMutability": "view",
      "type": "function"
    },
    {
      "constant": true,
      "inputs": [],
      "name": "num_candidates",
      "outputs": [
        {
          "name": "",
          "type": "uint256"
        }
      ],
      "payable": false,
      "stateMutability": "view",
      "type": "function"
    },
    {
      "constant": true,
      "inputs": [],
      "name": "owner",
      "outputs": [
        {
          "name": "",
          "type": "address"
        }
      ],
      "payable": false,
      "stateMutability": "view",
      "type": "function"
    },
    {
      "constant": true,
      "inputs": [
        {
          "name": "",
          "type": "address"
        }
      ],
      "name": "voted_for",
      "outputs": [
        {
          "name": "",
          "type": "uint256"
        }
      ],
      "payable": false,
      "stateMutability": "view",
      "type": "function"
    },
    {
      "constant": true,
      "inputs": [
        {
          "name": "",
          "type": "address"
        }
      ],
      "name": "voters",
      "outputs": [
        {
          "name": "",
          "type": "bool"
        }
      ],
      "payable": false,
      "stateMutability": "view",
      "type": "function"
    },
    {
      "inputs": [],
      "payable": false,
      "stateMutability": "nonpayable",
      "type": "constructor"
    },
    {
      "constant": false,
      "inputs": [
        {
          "name": "_candidateId",
          "type": "uint256"
        }
      ],
      "name": "vote",
      "outputs": [],
      "payable": false,
      "stateMutability": "nonpayable",
      "type": "function"
    },
    {
      "constant": false,
      "inputs": [],
      "name": "start_election",
      "outputs": [],
      "payable": false,
      "stateMutability": "nonpayable",
      "type": "function"
    },
    {
      "constant": false,
      "inputs": [],
      "name": "end_election",
      "outputs": [],
      "payable": false,
      "stateMutability": "nonpayable",
      "type": "function"
    }
  ],
  "bytecode": "0x608060405234801561001057600080fd5b5033600160006101000a81548173ffffffffffffffffffffffffffffffffffffffff021916908373ffffffffffffffffffffffffffffffffffffffff160217905550600080819055506100a66040805190810160405280600381526020017f41424300000000000000000000000000000000000000000000000000000000008152506100f8640100000000026401000000009004565b6100f36040805190810160405280600381526020017f58595a00000000000000000000000000000000000000000000000000000000008152506100f8640100000000026401000000009004565b61021a565b600260008154809291906001019190505550606060405190810160405280600254815260200160008152602001828152506004600060025481526020019081526020016000206000820151816000015560208201518160010155604082015181600201908051906020019061016e929190610175565b5090505050565b828054600181600116156101000203166002900490600052602060002090601f016020900481019282601f106101b657805160ff19168380011785556101e4565b828001600101855582156101e4579182015b828111156101e35782518255916020019190600101906101c8565b5b5090506101f191906101f5565b5090565b61021791905b808211156102135760008160009055506001016101fb565b5090565b90565b610678806102296000396000f3fe60806040526004361061008e576000357c0100000000000000000000000000000000000000000000000000000000900463ffffffff1680630121b93f146100935780633477ee2e146100ce57806364811ec9146101905780636f3e5ef3146101bb5780638da5cb5b146101d25780639ab0fa7f14610229578063a3ec138d1461028e578063d1978776146102f7575b600080fd5b34801561009f57600080fd5b506100cc600480360360208110156100b657600080fd5b810190808035906020019092919050505061030e565b005b3480156100da57600080fd5b50610107600480360360208110156100f157600080fd5b810190808035906020019092919050505061045a565b6040518084815260200183815260200180602001828103825283818151815260200191508051906020019080838360005b83811015610153578082015181840152602081019050610138565b50505050905090810190601f1680156101805780820380516001836020036101000a031916815260200191505b5094505050505060405180910390f35b34801561019c57600080fd5b506101a561051c565b6040518082815260200191505060405180910390f35b3480156101c757600080fd5b506101d0610522565b005b3480156101de57600080fd5b506101e7610588565b604051808273ffffffffffffffffffffffffffffffffffffffff1673ffffffffffffffffffffffffffffffffffffffff16815260200191505060405180910390f35b34801561023557600080fd5b506102786004803603602081101561024c57600080fd5b81019080803573ffffffffffffffffffffffffffffffffffffffff1690602001909291905050506105ae565b6040518082815260200191505060405180910390f35b34801561029a57600080fd5b506102dd600480360360208110156102b157600080fd5b81019080803573ffffffffffffffffffffffffffffffffffffffff1690602001909291905050506105c6565b604051808215151515815260200191505060405180910390f35b34801561030357600080fd5b5061030c6105e6565b005b600160005414151561031f57600080fd5b600360003373ffffffffffffffffffffffffffffffffffffffff1673ffffffffffffffffffffffffffffffffffffffff16815260200190815260200160002060009054906101000a900460ff1615151561037857600080fd5b60008111801561038a57506002548111155b151561039557600080fd5b6001600360003373ffffffffffffffffffffffffffffffffffffffff1673ffffffffffffffffffffffffffffffffffffffff16815260200190815260200160002060006101000a81548160ff02191690831515021790555080600560003373ffffffffffffffffffffffffffffffffffffffff1673ffffffffffffffffffffffffffffffffffffffff16815260200190815260200160002081905550600460008281526020019081526020016000206001016000815480929190600101919050555050565b6004602052806000526040600020600091509050806000015490806001015490806002018054600181600116156101000203166002900480601f0160208091040260200160405190810160405280929190818152602001828054600181600116156101000203166002900480156105125780601f106104e757610100808354040283529160200191610512565b820191906000526020600020905b8154815290600101906020018083116104f557829003601f168201915b5050505050905083565b60025481565b600160009054906101000a900473ffffffffffffffffffffffffffffffffffffffff1673ffffffffffffffffffffffffffffffffffffffff163373ffffffffffffffffffffffffffffffffffffffff1614151561057e57600080fd5b6002600081905550565b600160009054906101000a900473ffffffffffffffffffffffffffffffffffffffff1681565b60056020528060005260406000206000915090505481565b60036020528060005260406000206000915054906101000a900460ff1681565b600160009054906101000a900473ffffffffffffffffffffffffffffffffffffffff1673ffffffffffffffffffffffffffffffffffffffff163373ffffffffffffffffffffffffffffffffffffffff1614151561064257600080fd5b600160008190555056fea165627a7a723058209eee3a9df8f818f8556d731346bcfe3e31f4730af9b57c7d3e45dcf5a769f7f20029",
  "source": "pragma solidity >=0.4.22 <0.8.0; \r\n//pragma solidity 0.7.6;\r\n\r\ncontract Election {\r\n    uint private status_election; //0-not started, 1-ongoing, 2-finished\r\n    address public owner;\r\n\r\n    struct Candidate {\r\n        uint id;\r\n        uint num_votes;\r\n        string name;\r\n    }\r\n\r\n    uint public num_candidates;\r\n    mapping(address => bool) public voters;\r\n    mapping(uint => Candidate) public candidates;\r\n    mapping(address => uint) public voted_for;\r\n\r\n    // voted event\r\n    //event votedEvent (\r\n    //    uint indexed _candidateId\r\n    //);\r\n\r\n    constructor () public {\r\n        owner = msg.sender; \r\n        status_election = 0;\r\n        addCandidate(\"ABC\");\r\n        addCandidate(\"XYZ\");\r\n    }\r\n\r\n    function addCandidate (string memory _name) private {\r\n        num_candidates++;\r\n        candidates[num_candidates] = Candidate(num_candidates, 0, _name);\r\n    }\r\n\r\n    function vote (uint _candidateId) public {\r\n        require(status_election == 1);\r\n        require(!voters[msg.sender]);\r\n        require(_candidateId > 0 && _candidateId <= num_candidates);\r\n        voters[msg.sender] = true;\r\n        voted_for[msg.sender] = _candidateId;\r\n        candidates[_candidateId].num_votes ++;\r\n\r\n        // trigger voted event\r\n        //emit votedEvent(_candidateId);\r\n    }\r\n\r\n    function start_election () public {\r\n        require(msg.sender == owner);\r\n        status_election = 1;\r\n    }\r\n\r\n    function end_election () public {\r\n        require(msg.sender == owner);\r\n        status_election = 2;\r\n    }\r\n}",
  "sourcePath": "C:/Users/manya/cs2361-proj/contracts/Election.sol",
  "compiler": {
    "name": "solc",
    "version": "0.5.0+commit.1d4f565a.Emscripten.clang"
  },
  "schemaVersion": "3.0.1",
  "updatedAt": "2022-05-05T20:16:35.106Z",
  "devdoc": {
    "methods": {}
  },
  "userdoc": {
    "methods": {}
  }
}