{
  "contractName": "Election",
  "abi": [
    {
      "constant": true,
      "inputs": [
        {
          "name": "",
          "type": "uint256"
        }
      ],
      "name": "candidates",
      "outputs": [
        {
          "name": "num_votes",
          "type": "uint256"
        },
        {
          "name": "id",
          "type": "uint256"
        },
        {
          "name": "cname",
          "type": "string"
        }
      ],
      "payable": false,
      "stateMutability": "view",
      "type": "function",
      "signature": "0x3477ee2e"
    },
    {
      "constant": true,
      "inputs": [],
      "name": "num_candidates",
      "outputs": [
        {
          "name": "",
          "type": "uint256"
        }
      ],
      "payable": false,
      "stateMutability": "view",
      "type": "function",
      "signature": "0x64811ec9"
    },
    {
      "constant": true,
      "inputs": [],
      "name": "candidate",
      "outputs": [
        {
          "name": "",
          "type": "string"
        }
      ],
      "payable": false,
      "stateMutability": "view",
      "type": "function",
      "signature": "0x6c8381f8"
    },
    {
      "constant": true,
      "inputs": [],
      "name": "owner",
      "outputs": [
        {
          "name": "",
          "type": "address"
        }
      ],
      "payable": false,
      "stateMutability": "view",
      "type": "function",
      "signature": "0x8da5cb5b"
    },
    {
      "constant": true,
      "inputs": [
        {
          "name": "",
          "type": "address"
        }
      ],
      "name": "voters",
      "outputs": [
        {
          "name": "",
          "type": "bool"
        }
      ],
      "payable": false,
      "stateMutability": "view",
      "type": "function",
      "signature": "0xa3ec138d"
    },
    {
      "inputs": [],
      "payable": false,
      "stateMutability": "nonpayable",
      "type": "constructor",
      "signature": "constructor"
    },
    {
      "constant": false,
      "inputs": [
        {
          "name": "_cid",
          "type": "uint256"
        }
      ],
      "name": "vote",
      "outputs": [],
      "payable": false,
      "stateMutability": "nonpayable",
      "type": "function",
      "signature": "0x0121b93f"
    },
    {
      "constant": false,
      "inputs": [],
      "name": "start_election",
      "outputs": [],
      "payable": false,
      "stateMutability": "nonpayable",
      "type": "function",
      "signature": "0xd1978776"
    },
    {
      "constant": false,
      "inputs": [],
      "name": "end_election",
      "outputs": [],
      "payable": false,
      "stateMutability": "nonpayable",
      "type": "function",
      "signature": "0x6f3e5ef3"
    }
  ],
  "bytecode": "0x608060405234801561001057600080fd5b5033600260006101000a81548173ffffffffffffffffffffffffffffffffffffffff021916908373ffffffffffffffffffffffffffffffffffffffff160217905550600180819055506100a66040805190810160405280600381526020017f41424300000000000000000000000000000000000000000000000000000000008152506100f8640100000000026401000000009004565b6100f36040805190810160405280600381526020017f58595a00000000000000000000000000000000000000000000000000000000008152506100f8640100000000026401000000009004565b61021c565b60056000815480929190600101919050555060006003600060055481526020019081526020016000206000018190555060055460036000600554815260200190815260200160002060010181905550806003600060055481526020019081526020016000206002019080519060200190610173929190610177565b5050565b828054600181600116156101000203166002900490600052602060002090601f016020900481019282601f106101b857805160ff19168380011785556101e6565b828001600101855582156101e6579182015b828111156101e55782518255916020019190600101906101ca565b5b5090506101f391906101f7565b5090565b61021991905b808211156102155760008160009055506001016101fd565b5090565b90565b6106a58061022b6000396000f3fe60806040526004361061008e576000357c0100000000000000000000000000000000000000000000000000000000900463ffffffff1680630121b93f146100935780633477ee2e146100ce57806364811ec9146101905780636c8381f8146101bb5780636f3e5ef31461024b5780638da5cb5b14610262578063a3ec138d146102b9578063d197877614610322575b600080fd5b34801561009f57600080fd5b506100cc600480360360208110156100b657600080fd5b8101908080359060200190929190505050610339565b005b3480156100da57600080fd5b50610107600480360360208110156100f157600080fd5b81019080803590602001909291905050506104ba565b6040518084815260200183815260200180602001828103825283818151815260200191508051906020019080838360005b83811015610153578082015181840152602081019050610138565b50505050905090810190601f1680156101805780820380516001836020036101000a031916815260200191505b5094505050505060405180910390f35b34801561019c57600080fd5b506101a561057c565b6040518082815260200191505060405180910390f35b3480156101c757600080fd5b506101d0610582565b6040518080602001828103825283818151815260200191508051906020019080838360005b838110156102105780820151818401526020810190506101f5565b50505050905090810190601f16801561023d5780820380516001836020036101000a031916815260200191505b509250505060405180910390f35b34801561025757600080fd5b50610260610620565b005b34801561026e57600080fd5b5061027761062a565b604051808273ffffffffffffffffffffffffffffffffffffffff1673ffffffffffffffffffffffffffffffffffffffff16815260200191505060405180910390f35b3480156102c557600080fd5b50610308600480360360208110156102dc57600080fd5b81019080803573ffffffffffffffffffffffffffffffffffffffff169060200190929190505050610650565b604051808215151515815260200191505060405180910390f35b34801561032e57600080fd5b50610337610670565b005b6001805414151561034957600080fd5b600460003373ffffffffffffffffffffffffffffffffffffffff1673ffffffffffffffffffffffffffffffffffffffff16815260200190815260200160002060009054906101000a900460ff161515156103a257600080fd5b6000811180156103b457506005548111155b15156103bf57600080fd5b6001600460003373ffffffffffffffffffffffffffffffffffffffff1673ffffffffffffffffffffffffffffffffffffffff16815260200190815260200160002060006101000a81548160ff021916908315150217905550600360008281526020019081526020016000206003013390806001815401808255809150509060018203906000526020600020016000909192909190916101000a81548173ffffffffffffffffffffffffffffffffffffffff021916908373ffffffffffffffffffffffffffffffffffffffff16021790555050600360008281526020019081526020016000206000016000815480929190600101919050555050565b6003602052806000526040600020600091509050806000015490806001015490806002018054600181600116156101000203166002900480601f0160208091040260200160405190810160405280929190818152602001828054600181600116156101000203166002900480156105725780601f1061054757610100808354040283529160200191610572565b820191906000526020600020905b81548152906001019060200180831161055557829003601f168201915b5050505050905083565b60055481565b60008054600181600116156101000203166002900480601f0160208091040260200160405190810160405280929190818152602001828054600181600116156101000203166002900480156106185780601f106105ed57610100808354040283529160200191610618565b820191906000526020600020905b8154815290600101906020018083116105fb57829003601f168201915b505050505081565b6002600181905550565b600260009054906101000a900473ffffffffffffffffffffffffffffffffffffffff1681565b60046020528060005260406000206000915054906101000a900460ff1681565b6001808190555056fea165627a7a72305820ddbbba73ad4b4e7f91fcfd3c8b6520a6107eb369bfbf167b43d8c55ac595be330029",
  "source": "pragma solidity >=0.4.22 <0.8.0; \r\n\r\ncontract Election { \r\n    //state variable- writes data into the blockchain\r\n    string public candidate; \r\n    uint private status_election; //0-not started, 1-ongoing, 2-finished\r\n    address public owner;\r\n\r\n    struct Candidate {\r\n        uint num_votes;\r\n        uint id;\r\n        string cname;\r\n        address[] c_voters;\r\n    }\r\n\r\n    mapping(uint => Candidate) public candidates;\r\n    mapping(address => bool) public voters;\r\n\r\n    uint public num_candidates;\r\n\r\n    constructor() public {\r\n        //console.log(\"Owner contract deployed by:\", msg.sender); \r\n        owner = msg.sender; \r\n        status_election = 1;\r\n        Add_Candidate(\"ABC\");\r\n        Add_Candidate(\"XYZ\");\r\n    }\r\n\r\n    function Add_Candidate (string memory _cname) private {\r\n        num_candidates ++;\r\n        //candidates[num_candidates] = Candidate(0, num_candidates, _cname);\r\n        candidates[num_candidates].num_votes = 0;\r\n        candidates[num_candidates].id = num_candidates;\r\n        candidates[num_candidates].cname = _cname;\r\n        //candidate[num_candidates].c_voters.push(owner);\r\n    }\r\n\r\n    function vote (uint _cid) public {\r\n        require(status_election == 1);\r\n        require(!voters[msg.sender]);\r\n        require(_cid > 0 && _cid <= num_candidates);\r\n        voters[msg.sender] = true;\r\n        candidates[_cid].c_voters.push(msg.sender);\r\n        candidates[_cid].num_votes ++;\r\n    }\r\n\r\n    function start_election () public {\r\n        status_election = 1;\r\n    }\r\n\r\n    function end_election () public {\r\n        status_election = 2;\r\n    }\r\n}",
  "sourcePath": "C:/Users/manya/cs2361-proj/contracts/Election.sol",
  "compiler": {
    "name": "solc",
    "version": "0.5.0+commit.1d4f565a.Emscripten.clang"
  },
  "schemaVersion": "3.0.1",
  "updatedAt": "2022-04-29T09:46:25.059Z",
  "devdoc": {
    "methods": {}
  },
  "userdoc": {
    "methods": {}
  }
}